{
  "_format": "hh-sol-artifact-1",
  "contractName": "EnJoyPrediction",
  "sourceName": "contracts/EnJoyPrediction.sol",
  "abi": [
    {
      "inputs": [
        {
          "internalType": "contract IERC20",
          "name": "usdtAddress",
          "type": "address"
        },
        {
          "internalType": "contract AggregatorV3Interface",
          "name": "btcAggregator",
          "type": "address"
        }
      ],
      "stateMutability": "nonpayable",
      "type": "constructor"
    },
    {
      "inputs": [],
      "name": "AlreadyPredicted",
      "type": "error"
    },
    {
      "inputs": [],
      "name": "SettleTooEarly",
      "type": "error"
    },
    {
      "inputs": [],
      "name": "StakeOutOfRange",
      "type": "error"
    },
    {
      "inputs": [],
      "name": "claim",
      "outputs": [],
      "stateMutability": "nonpayable",
      "type": "function"
    },
    {
      "inputs": [
        {
          "internalType": "address",
          "name": "player",
          "type": "address"
        }
      ],
      "name": "ifPredicted",
      "outputs": [
        {
          "internalType": "bool",
          "name": "",
          "type": "bool"
        }
      ],
      "stateMutability": "view",
      "type": "function"
    },
    {
      "inputs": [
        {
          "internalType": "bool",
          "name": "predictLong",
          "type": "bool"
        },
        {
          "internalType": "uint32",
          "name": "stakeAmount",
          "type": "uint32"
        }
      ],
      "name": "predict",
      "outputs": [],
      "stateMutability": "nonpayable",
      "type": "function"
    },
    {
      "inputs": [],
      "name": "settle",
      "outputs": [],
      "stateMutability": "nonpayable",
      "type": "function"
    },
    {
      "inputs": [
        {
          "internalType": "address",
          "name": "player",
          "type": "address"
        }
      ],
      "name": "unclaimReward",
      "outputs": [
        {
          "internalType": "uint80",
          "name": "claimableReward",
          "type": "uint80"
        }
      ],
      "stateMutability": "view",
      "type": "function"
    }
  ],
  "bytecode": "0x60c060405234801561001057600080fd5b5060405161115438038061115483398101604081905261002f9161005e565b6001600160a01b039182166080521660a052610098565b6001600160a01b038116811461005b57600080fd5b50565b6000806040838503121561007157600080fd5b825161007c81610046565b602084015190925061008d81610046565b809150509250929050565b60805160a0516110906100c46000396000610175015260008181610413015261080001526110906000f3fe608060405234801561001057600080fd5b50600436106100675760003560e01c80634e71d92d116100505780634e71d92d146100895780637639c3d6146100915780639cd84409146100b957600080fd5b806311da60b41461006c57806345b4dc5414610076575b600080fd5b6100746100e7565b005b610074610084366004610d7c565b610312565b6100746105d4565b6100a461009f366004610dbe565b610888565b60405190151581526020015b60405180910390f35b6100cc6100c7366004610dbe565b6108c6565b60405169ffffffffffffffffffff90911681526020016100b0565b60006100f1610abc565b6000818152600160208190526040822092935081610110600286610e23565b8152602081019190915260400160009081209150825460ff16600381111561013a5761013a610e3a565b14610171576040517f3edf605000000000000000000000000000000000000000000000000000000000815260040160405180910390fd5b60007f000000000000000000000000000000000000000000000000000000000000000073ffffffffffffffffffffffffffffffffffffffff1663feaf968c6040518163ffffffff1660e01b815260040160a060405180830381865afa1580156101de573d6000803e3d6000fd5b505050506040513d601f19601f820116820180604052508101906102029190610e88565b505085547fffffffffffffffffffffffffffffffffffffffffff00000000000000000000ff1661010069ffffffffffffffffffff8481168281029390931789558754949650869550930490921691821015905061028f57835460019085907fffffffffffffffffffffffffffffffffffffffffffffffffffffffffffffff001682805b021790555061030a565b8069ffffffffffffffffffff168269ffffffffffffffffffff1610156102e057835460029085907fffffffffffffffffffffffffffffffffffffffffffffffffffffffffffffff0016600183610285565b83547fffffffffffffffffffffffffffffffffffffffffffffffffffffffffffffff001660031784555b505050505050565b600061031c610abc565b9050624c4b4063ffffffff8316118061033d5750620f424063ffffffff8316105b15610374576040517f7388e85000000000000000000000000000000000000000000000000000000000815260040160405180910390fd5b33600090815260208190526040902061038d9082610ae2565b156103c4576040517f3b9e91cf00000000000000000000000000000000000000000000000000000000815260040160405180910390fd5b6000818152600160205260409081902090517f23b872dd00000000000000000000000000000000000000000000000000000000815233600482015230602482015263ffffffff841660448201527f000000000000000000000000000000000000000000000000000000000000000073ffffffffffffffffffffffffffffffffffffffff16906323b872dd906064016020604051808303816000875af1158015610471573d6000803e3d6000fd5b505050506040513d601f19601f820116820180604052508101906104959190610ed8565b50831561050057805463ffffffff8416908290600b906104d19084906b010000000000000000000000900469ffffffffffffffffffff16610ef5565b92506101000a81548169ffffffffffffffffffff021916908369ffffffffffffffffffff16021790555061056a565b805463ffffffff841690829060159061053f9084907501000000000000000000000000000000000000000000900469ffffffffffffffffffff16610ef5565b92506101000a81548169ffffffffffffffffffff021916908369ffffffffffffffffffff1602179055505b60006105b760405180604001604052808663ffffffff16815260200187610592576002610595565b60015b60ff90811690915281516020909201511660089190911b64ffffffff00161790565b33600090815260208190526040902090915061030a908483610af5565b336000908152602081905260408120906105ed82610b0a565b90506000805b828110156107bf576000806106088684610b15565b60408051808201825260ff83811660208084019190915263ffffffff600886901c1683526000868152600190915283812084516080810190955280549698509496509194919391839116600381111561066357610663610e3a565b600381111561067457610674610e3a565b8152905469ffffffffffffffffffff6101008204811660208401526b01000000000000000000000082048116604084015275010000000000000000000000000000000000000000009091041660609091015290506003815160038111156106dd576106dd610e3a565b036107065781516106f49063ffffffff1687610ef5565b95506107008885610b31565b506107aa565b60008160600151826040015161071c9190610ef5565b9050600060018351600381111561073557610735610e3a565b1461074457826060015161074a565b82604001515b8351909150600381111561076057610760610e3a565b60ff16846020015160ff16036107a7578351819061078590849063ffffffff16610f23565b61078f9190610f84565b6107999089610ef5565b97506107a58a87610b31565b505b50505b50505050806107b890610fad565b90506105f3565b506040517fa9059cbb00000000000000000000000000000000000000000000000000000000815233600482015269ffffffffffffffffffff821660248201527f000000000000000000000000000000000000000000000000000000000000000073ffffffffffffffffffffffffffffffffffffffff169063a9059cbb906044016020604051808303816000875af115801561085e573d6000803e3d6000fd5b505050506040513d601f19601f820116820180604052508101906108829190610ed8565b50505050565b60006108c0610895610abc565b73ffffffffffffffffffffffffffffffffffffffff8416600090815260208190526040902090610ae2565b92915050565b73ffffffffffffffffffffffffffffffffffffffff81166000908152602081905260408120816108f582610b0a565b90506000925060005b81811015610ab4576000806109138584610b15565b60408051808201825260ff83811660208084019190915263ffffffff600886901c1683526000868152600190915283812084516080810190955280549698509496509194919391839116600381111561096e5761096e610e3a565b600381111561097f5761097f610e3a565b8152905469ffffffffffffffffffff6101008204811660208401526b01000000000000000000000082048116604084015275010000000000000000000000000000000000000000009091041660609091015290506003815160038111156109e8576109e8610e3a565b03610a065781516109ff9063ffffffff1689610ef5565b9750610a9f565b600081606001518260400151610a1c9190610ef5565b90506000600183516003811115610a3557610a35610e3a565b14610a44578260600151610a4a565b82604001515b83519091506003811115610a6057610a60610e3a565b60ff16846020015160ff1603610a9c5783518190610a8590849063ffffffff16610f23565b610a8f9190610f84565b610a99908b610ef5565b99505b50505b5050505080610aad90610fad565b90506108fe565b505050919050565b6000610acd62015180619ab0610fe5565b610add9063ffffffff1642610e23565b905090565b6000610aee8383610b3d565b9392505050565b6000610b02848484610b49565b949350505050565b60006108c082610b66565b6000808080610b248686610b71565b9097909650945050505050565b6000610aee8383610b9c565b6000610aee8383610bb9565b60008281526002840160205260408120829055610b028484610bd1565b60006108c082610bdd565b60008080610b7f8585610be7565b600081815260029690960160205260409095205494959350505050565b60008181526002830160205260408120819055610aee8383610bf3565b60008181526001830160205260408120541515610aee565b6000610aee8383610bff565b60006108c0825490565b6000610aee8383610c4e565b6000610aee8383610c78565b6000818152600183016020526040812054610c46575081546001818101845560008481526020808220909301849055845484825282860190935260409020919091556108c0565b5060006108c0565b6000826000018281548110610c6557610c65610ffc565b9060005260206000200154905092915050565b60008181526001830160205260408120548015610d61576000610c9c600183610e23565b8554909150600090610cb090600190610e23565b9050818114610d15576000866000018281548110610cd057610cd0610ffc565b9060005260206000200154905080876000018481548110610cf357610cf3610ffc565b6000918252602080832090910192909255918252600188019052604090208390555b8554869080610d2657610d2661102b565b6001900381819060005260206000200160009055905585600101600086815260200190815260200160002060009055600193505050506108c0565b60009150506108c0565b8015158114610d7957600080fd5b50565b60008060408385031215610d8f57600080fd5b8235610d9a81610d6b565b9150602083013563ffffffff81168114610db357600080fd5b809150509250929050565b600060208284031215610dd057600080fd5b813573ffffffffffffffffffffffffffffffffffffffff81168114610aee57600080fd5b7f4e487b7100000000000000000000000000000000000000000000000000000000600052601160045260246000fd5b600082821015610e3557610e35610df4565b500390565b7f4e487b7100000000000000000000000000000000000000000000000000000000600052602160045260246000fd5b805169ffffffffffffffffffff81168114610e8357600080fd5b919050565b600080600080600060a08688031215610ea057600080fd5b610ea986610e69565b9450602086015193506040860151925060608601519150610ecc60808701610e69565b90509295509295909350565b600060208284031215610eea57600080fd5b8151610aee81610d6b565b600069ffffffffffffffffffff808316818516808303821115610f1a57610f1a610df4565b01949350505050565b600069ffffffffffffffffffff80831681851681830481118215151615610f4c57610f4c610df4565b02949350505050565b7f4e487b7100000000000000000000000000000000000000000000000000000000600052601260045260246000fd5b600069ffffffffffffffffffff80841680610fa157610fa1610f55565b92169190910492915050565b60007fffffffffffffffffffffffffffffffffffffffffffffffffffffffffffffffff8203610fde57610fde610df4565b5060010190565b600063ffffffff80841680610fa157610fa1610f55565b7f4e487b7100000000000000000000000000000000000000000000000000000000600052603260045260246000fd5b7f4e487b7100000000000000000000000000000000000000000000000000000000600052603160045260246000fdfea2646970667358221220eba0824a08ed859e76c2532b25cda649938c756f9cf69f86282450b472fed46564736f6c634300080d0033",
  "linkReferences": {},
  "deployedLinkReferences": {}
}